:03000000020839BA
:0C083900787FE4F6D8FD75815602088037
:100B4B00E4FDFCE4FAFBC3EB9FEA9E50070BBB00F2
:0F0B5B00010A80F20DBD00010CBC01E7BDF4E4FE
:010B6A002268
:0B0C7B00EF1FAC0670011E4C70F6224B
:100A08006B6579206973207072657373202562782D
:100A1800200A006B65796E6F772069732025626400
:100A2800206B65796C61737420697320256264207A
:080A3800636E742025640A00BE
:0A09CE00025500000153000154001F
:100B6B00E4F5937594FFF5917592FF75B11C75B211
:0E0B7B00E2F5B375B41090FE1BE0441CF022AE
:100B2700C209C20AA2A39209A2A2920A2009062018
:100B37000A037F04222009037F0122200A037F0280
:030B4700227F000A
:010B4A002288
:10054A00E4F53DF53E120B278F3DE5531460331455
:10055A00604014605B14700302066E240460030298
:10056A000677E53D7003020677E5546003020677D5
:10057A007553017BFF7A0A7908853E42120100020F
:10058A000677E53DB5540860067553020206770200
:10059A000674E53DB55406755303020677E53DB486
:1005AA000402806FE4F553E5544420F53E020677D1
:1005BA000556E556700205557BFF7A0A791B853D7B
:1005CA0042855443855544F545120100E53D65547D
:1005DA00703CD3E55694F4E55594014010E53D642A
:1005EA00046003020677D215C213020677C3E556E2
:1005FA0094F4E55594015075E55694C8E555940070
:10060A00406BE53D64047065D213C215805FE53D19
:10061A00B4040FE4F553F555F556F554F53DF53E9A
:10062A00804BD3E55694F4E555940140097553047B
:10063A00E55444808025C3E55694F4E55594015069
:10064A0013E55694C8E55594004009E4F553E5547A
:10065A0044408007E4F553E5544420F53EE4F5555B
:10066A00F5568009E53D65546003E4F553853D542C
:02067A00AF3E91
:01067C00225B
:100C3D003F065B4F666D7D077F6F777C395E7971FF
:020C4D00730032
:07000300C294C295C2C422A1
:10001E00E4FE30000ED294D2950000C2950000C2CC
:10002E0094800CC294D2950000C2950000D294D256
:10003E00950000C2950000C3EE64809488501AEFBC
:10004E00C4131313540124FF9294EF25E0FFD295AD
:10005E000000C29500000E80DED2C40000C2C4C2F1
:01006E0094FD
:01006F00226E
:100070008D24EF900C3D93FFD20012001E7F017E75
:1000800000120B4BE524900C3D93FFC20012001EA2
:070090007F017E00020B4B13
:0F0C5F00759850438E1575D6FF75D7E7D2992239
:100BDC00438E805389F0438901758A8C758CFBC2D6
:090BEC008DD28CD2A9758F012273
:100BF500538EBF53890FE4F58B758DDCC28FD28E72
:090C0500D2AB43B80843B7082242
:0D000E0043D102E4F5D575D4E575AF20228D
:0400970043D1082227
:040C8D0053D1F72226
:0D0C6E00E4F5C7F5C5F5C675C380F5C422D1
:100B890075C78275C5018FC48EC375C65A75C6A54A
:0C0B99007F0A7E00120C7BAFC2120C6EB3
:010BA500222D
:100BA60075C78275C5028FC48EC38DC275C65A7548
:0C0BB600C6A57F0A7E00120C7B020C6EAC
:100BC20075C78275C5038FC48EC375C65A75C6A50F
:0A0BD2007F0A7E00120C7B020C6EFD
:1008C500746F20416C61726D200A00746F2046724E
:1008D5006571200A00706F776572202B2B0A0070F6
:1008E5006F776572202D2D0A0066726571202B2B9E
:1008F5000A00746F204E6F726D616C200A0053659B
:100905006E64206120436F6465205369676E616C76
:10091500200A006765742061206576656E74200A7B
:100925000000800181040305850888109011911449
:100935008D20A018A140C025C144C445A93131313D
:010945003180
:1009D800011901011A00011C01011B010115010186
:1009E8001801C113C1150216000002130000C196B8
:0F09F800C112C197C118C11402100000011200F2
:100A7400E4FFFE120B898F1C7F017E00120B898F0D
:100A84001BE51CD394205007E51CC3940050037548
:100A94001C01E51BD394025006E51B94005003751A
:030AA4001B012211
:100C2600E4FFFE120BC2AD1CE4FFFE120BA6AD1BC9
:070C36007F017E00020BA606
:070C8600201202C322D32259
:10071B00E51A540FFFE51A54F0F524EF1460311469
:10072B00605324FE7079E524B4400E7BFF7A087980
:10073B00C51201007519048012E524648070607B7A
:10074B00FF7A0879D0120100751902C213C2152263
:10075B00E524642070497BFF7A0879DA120100E501
:10076B001CC394205039D216051CE51C9009259307
:10077B00F580020C26E524642070247BFF7A08792F
:10078B00E4120100E51CC394014014151C120C2645
:0F079B00E51C7003C21622E51C90092593F5801A
:0107AA00222C
:10094600E51A540FFFE51A54F0F524EF24FE602251
:10095600047030E5246420702A7BFF7A0879EE1251
:100966000100E51BB40105751B028003751B01021E
:100976000C26E524B4200C7BFF7A0879F7120100D7
:03098600751901DF
:01098900224B
:100A4000E51A540FFFE51A54F0F524EF24FE601266
:100A5000047020E524B4201BD2187BFF7A097903A7
:100A6000800EE524B4200C7519017BFF7A0879F714
:030A700012010070
:010A73002260
:100C0E00E51924FE600B24FE600A24037009020716
:080C1E001B020946120A4022E4
:100C4F0020170475190822E519B408037519012234
:100AA700E51924FE601424FE601824FC601C24074A
:100AB700701F120C8DD2A5D2A422120C8DD2A5C202
:100AC700A422120C8DC2A5D2A422120097C2A5C2DD
:020AD700A42257
:10067D00E51924FE606024FE606224FC6065240799
:10068D00600302071A0517E5177002051630130DE2
:10069D00D39464E51694005018E4FD8011301517BD
:1006AD00D3E5179464E516940050067D01E4FF80B0
:1006BD00157D117F11800FE51C75F00A84FFE51C77
:1006CD0075F00A84ADF0120070E51764C845167018
:1006DD003CF516F51722AD1BE4FF80047D107F104D
:1006ED000200700514E51470020513D39464E5132C
:1006FD00940050067D087F0880047D117F11120043
:0E070D0070E51464C845137004F513F514224A
:10098A0075BA8090FE017402F0E4F5BA120A741284
:10099A000BDC120BF512000E120B6B120003120C79
:1009AA005FD2AF120C8650117BFF7A0979181201B7
:1009BA0000120C0EC212E4F51A120C4F12067D1226
:0409CA000AA780DF19
:03000B000203FAF3
:0B03FA00C0E0C083C082C0D075D008F6
:10040500753900753A00E4FFFEFDFCFBFAF582F54F
:10041500837942753B01753C4AE515651B6009E525
:100425001145107003851B15201433E515B401170C
:10043500758A8C758CFB7E007F1E7C017D3A7A0067
:100445007BC890075F801D758A26758CFD7E007FB1
:100455002E7C017DDC7A017B2C900B538006758AFE
:1004650027758CFC201603020539E5196404603EE6
:100475000511E51170020510B50F07E510B50E025F
:10048500C2B7E511B50D0DE510B50C087510007571
:100495001100D2B7E5116B7003E5106A6003020520
:1004A5004120B205C217020541D217020541301895
:1004B50076E51214601514602B14602F14603D143A
:1004C500604724057057D2B7751201E51165827032
:1004D50004E51065837046F510F511C2B775120273
:1004E500D2148039C2B77512038016E511653C70C8
:1004F50004E510653B70267512048021D2B775128C
:10050500057510007511008014E9B51110E4B510DA
:100515000CF510F511C2B7C218F512C2140511E594
:1005250011701905108015C2B77510007511007589
:0C05350012008008C2B77510007511009C
:09054100D0D0D082D083D0E0328A
:03001B00020AD9FD
:0D0AD900C0E0C0F0C083C082C0D075D0085E
:0F0AE600E4FF12054AEF6007201204F51AD2123E
:0B0AF500D0D0D082D083D0F0D0E0320F
:03009B00020C91C3
:030C9100B29032EC
:1008450002098AE493A3F8E493A34003F68001F236
:1008550008DFF48029E493A3F85407240CC8C333B4
:10086500C4540F4420C8834004F456800146F6DF83
:10087500E4800B01020408102040809009CEE47E3C
:10088500019360BCA3FF543F30E509541FFEE49378
:10089500A360010ECF54C025E060A840B8E493A33F
:1008A500FAE493A3F8E493A3C8C582C8CAC583CA6A
:1008B500F0A3C8C582C8CAC583CADFE9DEE780BE22
:010A070000EE
:10009E00E54E2442F8E6054E22783F3010027842B3
:1000AE00E475F0011208030207AB2009EB7F2ED294
:1000BE00098018EF540F2490D43440D4FF300D0B28
:1000CE00EF24BFB41A0050032461FFE54F60021500
:1000DE004F0552E5527002055130100D783FE47510
:1000EE00F001120803EF0207F1020B007403D210A5
:1000FE008003E4C210F54E8B3F8A408941E4F54FF0
:10010E00F551F552E54F60077F201200D980F57545
:10011E0050FFC20AC209C20BC20CC20EC20FC211DC
:10012E001200A7FF700D3010057F001200EAAF52CB
:10013E00AE5122B4255FC2D5C20D1200A7FF24D046
:10014E00B40A00501A75F00A784F30D50508B6FF7C
:10015E000106C6A426F620D5047002D20C80D9243E
:10016E00CFB41A00EF5004C2E5D20D0202EAD20A51
:10017E0080C6D20980C0D20B80BCD2D580BAD20E36
:10018E0080B47F201200D9200B077401B54F0040B8
:10019E00F112009EFF1200D9020112D211D20F806D
:1001AE009512009EFB12009EFA12009EF94A4B70A9
:1001BE000679BB7A037BFF200B2EE54F602A7E006B
:1001CE008E827583001207C460060EEE655070F0C5
:1001DE00C2D5EBC0E0EAC0E0E9C0E0EE120331D0D8
:1001EE00E0F9D0E0FAD0E0FB1207ABFF60AAEBC05B
:1001FE00E0EAC0E0E9C0E01200D9D0E02401F9D075
:10020E00E03400FAD0E0FBE5500460DCD550D98034
:10021E00877BFF7A03792DD20B809C79108002792F
:10022E0008C20FC2118008D2D5790A8004790AC299
:10023E00D5E550047002F550E4FAFDFEFF12009E63
:10024E00FC7B08200A1312009EFD7B1030090A1257
:10025E00009EFE12009EFF7B20EC3382D592D5507D
:10026E0013C3E43009069FFFE49EFEE4200A039DBB
:10027E00FDE49CFCE4CBF8C20AEC700CCFCECDCCE6
:10028E00E824F8F870F38017C3EF33FFEE33FEED7A
:10029E0033FDEC33FCEB33FB994002FB0FD8E9EB5B
:1002AE00300A05F8D0E0C448B20AC0E00AEC4D4E60
:1002BE004F78207B0070C2EAB5500040BCC0E012FF
:1002CE000333D0F0D0E0200A04C4C0E0C4B20AC0A8
:1002DE00F01200C2D0F0D5F0EB0201121208130199
:1002EE00AF5302295801804C017C42022D4F02353A
:0F02FE0044023549019543023B55021F46021F3A
:10030D0045021F4703DB5001842D01882E01AB2BC5
:10031D00018C2301A92003C42A014448000001A334
:10032D003F3F3F00790AA2D5200C14300E09B910B9
:10033D00020404B9080104A2D5200F0250010420C3
:10034D000B68920BB54F005034C0E07F20300C1974
:10035D007F30A20B720F720E500F12038AC20BC2A6
:10036D000FC20EC2117F30800F300E03E9C0E012B4
:10037D0000D9300E03D0E0F9D0E0B54FCC300E17D8
:10038D007F30B9100C1200D97F58300D077F78805F
:10039D0003B908031200D9300B057F2D0200D97F58
:1003AD00202011F87F2B200FF322920B80CF286E87
:1003BD00756C6C2900D20A12009E300AF8C20A78B8
:1003CD004F30D50108F60201442D50434958120013
:1003DD009E2403B405004001E49003D6931200CA95
:0D03ED00743A1200CAD20C754F04020229A6
:1007AB00BB010689828A83E0225002E722BBFE024C
:0907BB00E32289828A83E493227F
:1007C400BB010CE58229F582E5833AF583E02250EA
:1007D40006E92582F8E622BBFE06E92582F8E22234
:0D07E400E58229F582E5833AF583E493224E
:1007F100BB010689828A83F0225002F722BBFE01E7
:02080100F322E0
:10080300FAE6FB0808E6F925F0F618E6CA3AF622F6
:10081300D083D082F8E4937012740193700DA3A374
:1008230093F8740193F5828883E473740293686088
:06083300EFA3A3A380DF88
:100B0000EFB40A07740D120B0B740A309811A899F0
:100B1000B8130CC2983098FDA899C298B811F63055
:070B200099FDC299F599222D
:00000001FF
